:100000000C9462000C948A000C948A000C94D9041D
:100010000C94D9040C94D9040C948A000C948A0092
:100020000C948A000C948A000C948A000C94180496
:100030000C948A000C948A000C948A000C948A0018
:100040000C94CE030C948A000C943A090C94140975
:100050000C948A000C948A000C948A000C948A00F8
:100060000C948A000C948A000000000024002700F1
:100070002A0000000000250028002B0000000000DE
:1000800023002600290004040404040404040202DA
:100090000202020203030303030301020408102007
:1000A0004080010204081020010204081020000012
:1000B0000008000201000003040700000000000027
:1000C0000000211211241FBECFEFD8E0DEBFCDBF4C
:1000D00011E0A0E0B1E0E6E3FBE202C005900D9282
:1000E000AC34B107D9F722E0ACE4B1E001C01D9215
:1000F000A633B207E1F710E0C2E6D0E004C02197D2
:10010000FE010E948E15C136D107C9F70E943D0C31
:100110000C9499150C940000FC01538D448D252FEF
:1001200030E0842F90E0821B930B541710F0CF9691
:10013000089501970895FC01918D828D981761F0C3
:10014000828DDF01A80FB11D5D968C91928D9F5F0E
:100150009F73928F90E008958FEF9FEF0895FC01B9
:10016000918D828D981731F0828DE80FF11D858D6C
:1001700090E008958FEF9FEF0895FC01918D228DFF
:10018000892F90E0805C9F4F821B91098F73992784
:10019000089580E090E0892B29F00E940A098111DE
:1001A0000C94000008953FB7F89480915601909107
:1001B0005701A0915801B091590126B5A89B05C0DF
:1001C0002F3F19F00196A11DB11D3FBFBA2FA92FD6
:1001D000982F8827820F911DA11DB11DBC01CD0153
:1001E00042E0660F771F881F991F4A95D1F708953F
:1001F000089580E090E008950E9494150C940415F1
:100200000F931F93CF93DF93FC0120813181211540
:10021000310551F02130310509F043C0FC01078957
:10022000108DC0E0D0E023C0C0E0D0E089E891E0CC
:100230000E94BD00892B99F189E891E00E949B0002
:100240000D97A1F789E891E00E94BD00892B39F153
:1002500089E891E00E949B000A9741F72196E6CF3A
:10026000F801848195810E94CE098D3041F0F8011A
:10027000848195810E94C709892B91F710C0F801EC
:10028000848195810E94C709892B49F0F8018481F6
:1002900095810E94CE098A3051F72196E8CFCE0190
:1002A00002C080E090E0DF91CF911F910F910895FF
:1002B000CF92DF92EF92FF920F931F93CF93DF9332
:1002C000162FD72FC42FFC01208131812115310534
:1002D00021F021303105A1F16CC089E891E00E9444
:1002E000BD004C2F50E09A012F5F3F4F2817390770
:1002F0000CF05FC0E12EFD2E8701040F151FC0E03A
:100300000E151F0579F0F701D1917F0189E891E081
:100310000E949B002D2FDD0F330B2817390781F723
:10032000CF5FEECF89E891E00E949B000D9709F422
:10033000CF5F89E891E00E949B000A97E1F536C003
:10034000FC01C788D08CF601848195810E94C70981
:100350004C2F50E09A012E5F3F4F8217930748F1D0
:10036000E12EFD2E8701040F151FC0E0F6018481E8
:100370009581E016F10671F0F701D1917F010E949D
:10038000CE092D2FDD0F330B90E02817390771F7B9
:10039000CF5FECCF0E94CE098D3009F4CF5FF6011C
:1003A000848195810E94CE098A3029F481E08C0FE6
:1003B00003C080E001C08C2FDF91CF911F910F917E
:1003C000FF90EF90DF90CF900895FC01848DDF01C6
:1003D000A80FB11DA35ABF4F2C91848D90E00196B8
:1003E0008F739927848FA689B7892C93A089B189A7
:1003F0008C91837080648C93938D848D981306C048
:100400000288F389E02D80818F7D80830895EF92AB
:10041000FF920F931F93CF93DF93EC0181E0888FBE
:100420009B8D8C8D981305C0E889F989808185FDA5
:1004300026C0F62E0B8D10E00F5F1F4F0F73112794
:10044000E02E8C8DE8120CC00FB607FCFACFE889BD
:10045000F989808185FFF5CFCE010E94E501F1CFBA
:100460008B8DFE01E80FF11DE35AFF4FF0829FB71D
:10047000F8940B8FEA89FB89808180620AC09FB75C
:10048000F894EE89FF896083E889F9898081837017
:10049000806480839FBF81E090E0DF91CF911F91C6
:1004A0000F91FF90EF900895682F89E891E00C94E8
:1004B0000702FC01808191818130910521F005972F
:1004C00009F44CC06DC00280F381E02D8081811160
:1004D00003C080E090E004C0813029F482E390E022
:1004E0000E94650B2DC0803241F480E090E00E94B4
:1004F000FE00882329F160E009C0813251F480E0D8
:1005000090E00E94FE008130D9F061E080E090E050
:1005100015C0823241F485E090E00E94FE008823FD
:1005200079F060E009C08332D9F585E090E00E945F
:10053000FE00813029F061E085E090E00E940C151A
:100540008FEF0E94540281E00E9454028AE00E94D0
:1005500054028EEF0E94540281E008950280F381DC
:10056000E02D8081803169F4848193812281318101
:1005700030935E0120935F0190936001809361014D
:10058000DFCF813169F4848193812281318130937D
:100590005A0120935B0190935C0180935D01D0CF61
:1005A00080E00895CF93DF93EC01888D8823C9F014
:1005B000EA89FB89808185FD05C0A889B9898C916C
:1005C00086FD0FC00FB607FCF5CF808185FFF2CF07
:1005D000A889B9898C9185FFEDCFCE010E94E501F4
:1005E000E7CFDF91CF910895833081F028F48130F7
:1005F00099F08230A1F008958730A9F08830B9F0E1
:100600008430D1F4809180008F7D03C08091800080
:100610008F7780938000089584B58F7702C084B56A
:100620008F7D84BD08958091B0008F7703C0809145
:10063000B0008F7D8093B00008951F93CF93DF9318
:10064000282F30E0F901E255FF4F8491F901E65679
:10065000FF4FD491F901EA57FF4FC491CC23C1F069
:10066000162F81110E94F402EC2FF0E0EE0FFF1F15
:10067000EE58FF4FA591B4919FB7F894111104C0A3
:100680008C91D095D82302C0EC91DE2BDC939FBFD8
:10069000DF91CF911F910895CF93DF9390E0FC01FC
:1006A000E656FF4F2491FC01EA57FF4F84918823BF
:1006B00061F190E0880F991FFC01E859FF4FC59147
:1006C000D491FC01EE58FF4FA591B491611109C07E
:1006D0009FB7F8948881209582238883EC912E23FC
:1006E0000BC0623061F49FB7F8948881322F309547
:1006F00083238883EC912E2B2C939FBF06C08FB74A
:10070000F894E8812E2B28838FBFDF91CF91089535
:100710008F929F92AF92BF92CF92DF92EF92FF9211
:100720006B017C010E94D3004B015C01C114D10418
:10073000E104F104F1F00E94D300DC01CB0188193F
:100740009909AA09BB09883E9340A105B10570F338
:1007500021E0C21AD108E108F10888EE880E83E092
:10076000981EA11CB11CC114D104E104F10419F7B5
:10077000DDCFFF90EF90DF90CF90BF90AF909F9034
:100780008F9008952FB7F8946091520170915301A2
:1007900080915401909155012FBF08951F920F929F
:1007A0000FB60F9211242F933F938F939F93AF9384
:1007B000BF938091520190915301A0915401B09147
:1007C00055013091510123E0230F2D3720F401967C
:1007D000A11DB11D05C026E8230F0296A11DB11D64
:1007E000209351018093520190935301A09354019F
:1007F000B09355018091560190915701A0915801F5
:10080000B09159010196A11DB11D8093560190939D
:100810005701A0935801B0935901BF91AF919F9197
:100820008F913F912F910F900FBE0F901F901895B1
:100830001F920F920FB60F9211242F933F934F9355
:100840005F936F937F938F939F93AF93BF93EF9338
:10085000FF938091500187FF05C010928500109290
:1008600084001BC020915001022E000C330B80919C
:10087000880190E02817390784F480915001082EF0
:10088000000C990BFC01EE0FFF1F8E0F9F1FFC0148
:10089000EC59FE4F808186FD15C0809150018F5F1D
:1008A0008093500120915001022E000C330B809157
:1008B000880190E028173907C4F4809150018C30EA
:1008C00064F113C080915001082E000C990BFC01BB
:1008D000EE0FFF1F8E0F9F1FFC01EC59FE4F808112
:1008E00060E08F730E941D03D8CF809184009091A7
:1008F0008500049680349C4918F480E49CE905C086
:100900008091840090918500049690938900809353
:1009100088008FEF809350013BC02091840030917C
:10092000850080915001082E000C990BFC01EE0F00
:10093000FF1F8E0F9F1FFC01EC59FE4F818192819A
:10094000820F931F909389008093880080915001BB
:10095000082E000C990BFC01EE0FFF1F8E0F9F1F3E
:10096000FC01EC59FE4F808186FF12C0809150013E
:10097000082E000C990BFC01EE0FFF1F8E0F9F1F1E
:10098000FC01EC59FE4F808161E08F730E941D03D2
:10099000FF91EF91BF91AF919F918F917F916F9157
:1009A0005F914F913F912F910F900FBE0F901F902D
:1009B00018951F920F920FB60F9211242F933F9309
:1009C0008F939F93AF93BF93CF93DF93EF93FF9357
:1009D000E0914E01F0914F01309709F43FC0968DA0
:1009E000A685B785858591FF04C09C91892321F454
:1009F00035C09C91892391F5A389B4899C918589FF
:100A0000809589238C93868997890197F1F7208DAA
:100A1000318DC685D78588E0D9011197F1F7988186
:100A20008150D1F780914D0190E001968F73992705
:100A300020914C01281729F090914D0180934D0190
:100A400003C0868D8160868F828D938D0197F1F72B
:100A5000A389B4899C918589892B8C93FF91EF910F
:100A6000DF91CF91BF91AF919F918F913F912F9146
:100A70000F900FBE0F901F901895EF92FF920F935B
:100A80001F93CF93DF937C018B01EA01CA010E947F
:100A9000FE0091E0811101C090E0F7019083CE014A
:100AA00001960E94FE00F8018083CE0102960E940A
:100AB000FE00F8018183CE0103960E94FE00F8013A
:100AC0008283CE0104960E94FE00F8018383DF91A9
:100AD000CF911F910F91FF90EF9008950F931F9367
:100AE000CF938C01C62FDC018D919C9181309105B3
:100AF00049F08A309105A1F0892B91F5862F0E944B
:100B000054022FC0D8011496ED91FC911597848161
:100B10009581DC01ED91FC910190F081E02D09952A
:100B2000F80106811781D8018D919C91009719F0E9
:100B3000019731F016C06C2F89E891E00E940702FE
:100B4000D8015796ED91FC91589784819581DC01ED
:100B5000ED91FC910190F081E02D6C2F099501C081
:100B600002C081E090E0CF911F910F910895FC01A8
:100B700080819181009731F0019751F40788F08DC1
:100B8000E02D03C0018CF28DE02D808191810895CC
:100B900080E090E008954F925F926F927F928F92E3
:100BA0009F92AF92BF92CF92DF92EF92FF920F93FC
:100BB0001F93CF93DF933B01C42F48015901FC01E0
:100BC000208131812115310529F02130310509F4C9
:100BD0004BC09AC0D0E089E891E00E94BD009E0120
:100BE0002F5F3F4F281739070CF08EC08301730128
:100BF000EC0EFD1ED12CE016F10679F0F801C19043
:100C00008F0189E891E00E949B002C2DCC0C330BC6
:100C10002817390781F7D394EECF89E891E00E9435
:100C20009B000D9709F4D39489E891E00E949B0002
:100C30000A9709F4D3946D2D70E080E090E00E9453
:100C4000E7136B017C012296BE01DD0F880B990B27
:100C50000E94E713A50194010E9446149B01AC0178
:100C6000C1E0C701B6014DC0FC01C788D08CF601B8
:100C7000848195810E94C709D0E07E01F2E0EF0EE9
:100C8000F11C8E159F0508F43FC08301C60DD71DCA
:100C9000712CF601848195810C171D0771F0F80104
:100CA00061908F010E94CE09262D660C330B90E0D7
:100CB0002817390771F77394ECCF0E94CE098D3055
:100CC00009F47394F601848195810E94CE098A30DB
:100CD00009F47394672D70E080E090E00E94E713C0
:100CE0002B013C01B701FF0C880B990B0E94E71305
:100CF000A50194010E9446149B01AC01C1E0C3010F
:100D0000B2010E947D1587FDC0E08C2FDF91CF914D
:100D10001F910F91FF90EF90DF90CF90BF90AF9019
:100D20009F908F907F906F905F904F900895DC011F
:100D30002D913C912115310561F02130310571F47F
:100D4000DC015796ED91FC915897848195810C9424
:100D5000CE0989E891E00E949B00089580E0089503
:100D6000FC01808191818130910551F08A3091059B
:100D700071F0892B81F489E891E00E949B0008952D
:100D80000480F581E02D848195810C94CE098681C3
:100D900097810C9497060895DC012D913C912115C3
:100DA000310561F02130310569F4DC015796ED9190
:100DB000FC915897848195810C94C70989E891E04A
:100DC0000C94BD0080E090E00895FC018081918149
:100DD0008130910549F08A30910569F0892B79F4C9
:100DE00089E891E00C94BD000480F581E02D8481B8
:100DF00095810C94C709868197810C94CC0608953F
:100E00000F931F93CF93DF93EC01CE010E94CC068A
:100E1000892B21F0CE010E949706F7CF68EE73E090
:100E200080E090E00E948803CE010E94CC068C01F5
:100E3000CE010E94CC06892B21F0CE010E9497069C
:100E4000F7CF0451110981E00330110508F080E06B
:100E5000DF91CF911F910F9108954F925F926F9202
:100E60007F928F929F92AF92BF92EF92FF920F93D9
:100E70001F93CF93DF9300D000D000D0CDB7DEB763
:100E8000DC012D913C912130310591F0FC012A309B
:100E9000310509F4DDC0232B09F072C10280F38112
:100EA000E02D60817181828193810E94D60969C1A0
:100EB000DC011496ED91FC911597208131814281DE
:100EC000538104811581F801138E128E118E108EBC
:100ED000178A168A60E079E08DE390E00E941A1587
:100EE000F9012430310518F0C901039702C081E0EF
:100EF00090E0D8015D969C938E935C971C966C91C4
:100F0000663108F076C0C9019695879584319105C0
:100F100010F0439702C081E090E0D80157969C936F
:100F20008E935697369718F0C901059702C081E055
:100F300090E0F801918F808FC901880F991F280FC9
:100F4000391F36952795369527952D30310518F0A0
:100F50002C50310902C021E030E0D8015B963C936F
:100F60002E935A9730916800683058F021E06E3027
:100F700008F420E091E0892F01C0880F2A95EAF754
:100F800001C084E0832B80936800F8019485983039
:100F900038F09E3040F0963148F020E030E008C054
:100FA0002DE630E005C02BE630E002C02CE630E054
:100FB000D80154963C932E935397983030F481E0A7
:100FC00001C0880F9A95EAF70EC0292F30E09E30B5
:100FD00018F42850310902C02E50310981E001C0B7
:100FE000880F2A95EAF7F801858B848D958D0197F6
:100FF000F1F7D8015A968D919C915B97892B09F452
:10100000C0C0E0914E01F0914F010E171F0709F487
:10101000B8C0309739F0A389B4899C9185898095AF
:1010200089238C93F801868D8E7F868F10924D01D7
:1010300010924C0110934F0100934E010388F489E4
:10104000E02D9081D80155968C91892B808399C091
:10105000E680F780F7018081918181309105E9F781
:10106000C7010E94CC06892B21F0C7010E94970678
:10107000F7CF61E0D70112968C910E944C0360E09B
:10108000F70182810E941D030E94C2032B013C01D3
:101090000E94C2034B015C0161E0D70112968C9162
:1010A0000E941D0384189508A608B708B8EE8B1691
:1010B000B3E09B06A104B10478F4C7010E94CC06FA
:1010C0008536910524F0C7010E949706F6CF0E944D
:1010D000C2034B015C01E6CFF7018081918100974B
:1010E00019F0019761F1B6CF89E891E00E94BD0047
:1010F000892B81F089E891E00E949B000D9751F4C3
:1011000089E891E00E94BD00892B21F089E891E0F7
:101110000E949B0086E0E6E2F1E0DE01119601907C
:101120000D928A95E1F700E010E020E03FE345E012
:10113000BE016F5F7F4FC7010E94CB058BCF078930
:10114000108DF801848195810E94C709892B11F3C4
:10115000D80114968D919C9115970E94CE098D30DF
:10116000C9F6F801848195810E94C709892B91F203
:10117000D80114968D919C9115970E94CE09CACFE3
:1011800002C081E090E026960FB6F894DEBF0FBE55
:10119000CDBFDF91CF911F910F91FF90EF90BF9046
:1011A000AF909F908F907F906F905F904F90089539
:1011B000CF93DF9300D0CDB7DEB7209132023091CC
:1011C0003302CE0101962115310519F48653924060
:1011D00018C0AC01421B530BE0913402F091350270
:1011E00080E090E0309759F09C012E5F3F4F808166
:1011F0009181820F931F0280F381E02DF3CF840F42
:10120000951F9A83898389819A810F900F90DF912E
:10121000CF91089589E891E00E94BD0021E0892BDB
:1012200009F420E0822F08951F920F920FB60F92BB
:1012300011242F933F934F935F936F937F938F93DB
:101240009F93AF93BF93EF93FF9389E891E00E9440
:10125000E501FF91EF91BF91AF919F918F917F91A8
:101260006F915F914F913F912F910F900FBE0F9013
:101270001F9018951F920F920FB60F9211242F9363
:101280008F939F93EF93FF93E0919901F0919A01CF
:101290008081E0919F01F091A00182FD12C09081B8
:1012A0008091A2018F5F8F732091A301821751F06B
:1012B000E091A201F0E0E757FE4F958F8093A201E5
:1012C00001C08081FF91EF919F918F912F910F909D
:1012D0000FBE0F901F901895CF92DF92EF92FF9262
:1012E0000F931F93CF93DF936C017A018B01C0E0C2
:1012F000D0E0CE15DF0581F0D8016D918D01D601CA
:10130000ED91FC910190F081E02DC6010995892BAA
:1013100011F02196EECF7E01C701DF91CF911F9191
:101320000F91FF90EF90DF90CF900895EF92FF9292
:101330000F931F93CF93DF93082F61E080912A02D0
:101340000E944C03F0902B02E0902A02C0E0D0E013
:1013500010E0B8010C2E02C0759567950A94E2F76B
:1013600061708E2D0E941D0361E08F2D0E941D0370
:1013700060E08F2D0E941D032196C830D10549F7EA
:10138000DF91CF911F910F91FF90EF900895DC01B5
:10139000ED91FC910084F185E02D0994DC01ED9143
:1013A000FC910284F385E02D09950895CF92DF9298
:1013B000EF92FF926B017C01E0919901F0919A010B
:1013C00082E08083C11481EED806E104F104B1F01B
:1013D00060E079E08DE390E0A70196010E944C1552
:1013E000DA01C9010197A109B109B695A7959795A9
:1013F00087959C01211580E13807B8F0E0919901AB
:10140000F0919A01108260E874E88EE190E0A70103
:1014100096010E944C15DA01C9010197A109B10991
:10142000B695A795979587959C01E0919501F091C8
:1014300096013083E0919701F091980120831092FA
:10144000A101E0919D01F0919E0186E08083E091F1
:101450009B01F0919C01808180618083E0919B01E0
:10146000F0919C01808188608083E0919B01F091E4
:101470009C01808180688083E0919B01F0919C01B8
:1014800080818F7D8083FF90EF90DF90CF900895D3
:10149000FC01962F9695969596950190F081E02DFA
:1014A000E90FF11D40816770242F30E0062E02C045
:1014B000359527950A94E2F720FD0AC081E090E077
:1014C00001C0880F6A95EAF7840F808381E0089550
:1014D00080E00895FF920F931F93CF93DF93C82F5F
:1014E00060E080912B020E941D0361E0809129023F
:1014F0000E941D038C2F880F81680E94960960E06E
:1015000080912A020E944C0300E0C0E0D0E02091CC
:101510002A0230E0F901E255FF4F8491F901E656C5
:10152000FF4FF490F901EA57FF4F1491112391F006
:1015300081110E94F402E12FF0E0EE0FFF1FE4584A
:10154000FF4FA591B491EC91EF2131E009F430E027
:10155000832F02C080E090E00C2E01C0880F0A9417
:10156000EAF7082B61E080912B020E941D0360E0E6
:1015700080912B020E941D032196C830D10509F0ED
:10158000C6CF60E0809129020E941D03802FDF9169
:10159000CF911F910F91FF900895CF93C62F0E9476
:1015A0006A0ACF5F21E030E001C0220FCA95EAF756
:1015B00021502823822F8F7022952F709AE0299F27
:1015C000800D1124CF9108950F931F93CF93DF9334
:1015D000182F062FC9E2D2E060E08A810E941D0325
:1015E00061E088810E941D03812F880F80680E941E
:1015F0009609802F0E94960960E08881DF91CF9143
:101600001F910F910C941D03CF92DF92EF92FF92E6
:101610000F931F93CF93DF93CDB7DEB728970FB605
:10162000F894DEBF0FBECDBF66E080E00E94CD0A19
:10163000F82E67E081E00E94CD0A082F82E00E9428
:101640006A0A87FF08C085FB222720F99CE0299FB2
:10165000902D112409C0982F907396959695969584
:10166000292F220F220F920F8F70182F190F65E06C
:1016700083E00E94CD0AC82E64E084E00E94CD0A77
:10168000D82E62E085E00E94CD0AE82E67E086E071
:101690000E94CD0A90E08053984F98878F832F2D1A
:1016A000302F412F5C2D6D2D7E2D988528960FB6FD
:1016B000F894DEBF0FBECDBFDF91CF911F910F9188
:1016C000FF90EF90DF90CF900895CF92DF92EF924E
:1016D000FF92DC01A03282E0B8070CF03EC0B7FDFB
:1016E00006C0A53BB1052CF0A4EBB0E002C0A0E021
:1016F000B0E08091270228E830E06901C81AD108DB
:1017000087FDD394CC0CDD1CCC0CDD1C0D2C000C07
:10171000EE08FF088091280228E532E0281B3109F5
:1017200087FD3395220F331F220F331FA901330F7B
:10173000660B770B9A01AB012C193D094E095F0925
:101740000E94441524EB30E040E050E00E941A155E
:10175000C20ED31EE41EF51ED601909126029C30C7
:1017600098F58091270248E850E0481B510987FD11
:101770005395440F551F440F551FA417B5078CF000
:101780008091280228E532E0281B310987FD339536
:10179000220F331F220F331FAD012A173B070CF412
:1017A000A90142505109440F551F2FB7F894892FB2
:1017B00090E0FC01EE0FFF1F8E0F9F1FFC01EC5904
:1017C000FE4F528341832FBFFF90EF90DF90CF9069
:1017D0000895EF92FF920F931F93CF93DF93CDB7AE
:1017E000DEB7A0970FB6F894DEBF0FBECDBF7C0169
:1017F000C7010E94CC06892B21F0C7010E949706E1
:10180000F7CF8DE0ECE2F1E0DE01549601900D920D
:101810008A95E1F711E01F8F64EF71E080E090E0BE
:101820000E94880383E1E9E3F1E0DE011196019073
:101830000D928A95E1F71C87DE015496FD01019017
:101840000020E9F73197AF014A1B5B0B0DEC1CEC54
:101850002CEC3EE3BE016F5F7F4FC7010E94CB05BA
:10186000A0960FB6F894DEBF0FBECDBFDF91CF912B
:101870001F910F91FF90EF900895CF93DF93CDB715
:10188000DEB72E970FB6F894DEBF0FBECDBF7894AB
:1018900084B5826084BD84B5816084BD85B5826075
:1018A00085BD85B5816085BD80916E008160809326
:1018B0006E0010928100809181008260809381008F
:1018C000809181008160809381008091800081609F
:1018D000809380008091B10084608093B1008091FA
:1018E000B00081608093B00080917A008460809322
:1018F0007A0080917A00826080937A0080917A00E9
:10190000816080937A0080917A00806880937A0069
:101910001092C10060E087E00E94E40A80E00E942B
:101920006A0A682F6F7780E00E94E40A80910601BE
:1019300090910701A0910801B091090189879A87C8
:10194000AB87BC8780910A0190910B01A0910C019B
:10195000B0910D0189839A83AB83BC838CE290E0C4
:101960000E94C4128C018FEF9FEFD80111969C93B7
:101970008E9380E69AEE52969C938E93519754964E
:101980001C921E92539780E895E2A0E0B0E0F80127
:10199000858B968BA78BB08F118E128E148E138E23
:1019A000158E14A213A215A216A217A210A613A692
:1019B00012A684E090E00E94C4126C0184E0A82E7C
:1019C000B12CF601B182A08284E090E00E94C412A2
:1019D000D60113969C938E931297F801D386C286F4
:1019E00084E090E00E94C4126C01DC01AD92BC92D4
:1019F00084E090E00E94C412F60193838283D801B0
:101A00001D96DC92CE921C9719961C921E921897E6
:101A100082E090E00E94C4126C0180E290E00E949B
:101A2000C412F6019183808380E090E0D601ED91AD
:101A3000FC91E80FF91F1082019680329105B1F7F1
:101A4000F801D786C68664E6C6010E94480A62E7A6
:101A5000D8011E968D919C911F970E94480A8CE296
:101A600092E0F80193838283118210820284F385CD
:101A7000E02DCE01019693838283D8011C96ED91CF
:101A8000FC911D97089693838283C8010E942D07BD
:101A9000F801808191818130910549F08A3091056A
:101AA00081F0892BD1F40280F381E02D03C0048002
:101AB000F581E02D8081918122813381582F492F3A
:101AC00010C0F801868197810E94B705582F492FD1
:101AD000292F220F220B322F04C050E040E020E0DB
:101AE00030E0652F742FC901D80155966D937D9311
:101AF0008D939C93589753962D913C915497232BFB
:101B0000D9F4611571058105910539F488EE93E0EA
:101B100054969C938E9353970FC029E030E040E099
:101B200050E00E944C1560EA76E88FEF9FEF0E942C
:101B30004C15F801348B238B63E4D8011E968D91EC
:101B40009C911F970E94480AE0913002F091310267
:101B5000A081B1818C9111969C9111978917A0F465
:101B60000115110589F012962C91129713969C91EC
:101B70001397E22FF92FE80FF11DE80FF11D1183E4
:101B800000838C918F5F8C93C8010E942D076AE0BF
:101B9000F801868597850E94480AD8019A968D910A
:101BA0009C919B97892BE1F486E090E00E94C412FF
:101BB0006C01FC01158281E0848382E090E00E9448
:101BC000C412D6018D939C9381E090E00E94C412D0
:101BD000F60193838283D8019B96DC92CE929A97EA
:101BE000D8019A96ED91FC919B97858194818917F4
:101BF000B0F420819181A22FB92FA80FB11DA80F99
:101C0000B11D89E592E08D939C938581A281B3817A
:101C1000A80FB11D8AE08C9385818F5F85838091A9
:101C200026028C3008F051C061E089E00E944C032C
:101C300080912602E82FF0E09F01220F331FE20F70
:101C4000F31FEC59FE4F9081907C99609083109225
:101C50002702109228026CE00E948215BCE08B9F44
:101C6000B001112440E050E09B01240F351FF90121
:101C7000EE0FFF1F2E0F3F1FF901EC59FE4F908111
:101C800096FD16C04F5F5F4F4C30510569F78111CB
:101C90000FC01092800082E0809381001092850036
:101CA00010928400B19A80916F00826080936F00DF
:101CB000E0912602F0E0CF01880F991FE80FF91F8D
:101CC000EC59FE4F80818064808389E190E00E941E
:101CD000650B40E050E06EE571E083E691E00E9424
:101CE0003D0545E050E06AE571E082E691E00E9442
:101CF0003D05AA24A39404EF202E3324339460904E
:101D00003002709031027E866D86B12CAD85BE8525
:101D1000ED91FC918081B81608F02FC38B2D90E0D7
:101D20002C01440C551C0280F381E02DE40DF51DBF
:101D300000811181F801858D853008F04CC1823019
:101D400009F450C018F4813091F006C0833009F4D2
:101D500082C0843009F4F5C08F5FD8015D968C9302
:101D60000E94C203F80165A376A387A390A70E94EF
:101D7000C203D80195962D913D914D915C91989714
:101D80003B014C01621A730A840A950A51968D919F
:101D90009C915297A0E0B0E086159705A805B9057B
:101DA00018F4D8015A96AC92C8010E94E506892B16
:101DB00009F40CC1F801128EC8010E94B006D801C6
:101DC0005E968C935E978F3F09F0FDC0E2E05D96D2
:101DD000EC930E94C203D80195966D937D938D93E9
:101DE0009C9398970E94C203F80125A136A147A1B0
:101DF00050A53B014C01621A730A840A950A838933
:101E00009489A0E0B0E086159705A805B90508F407
:101E10004AC0C8010E94E506892B09F4D7C0C80151
:101E20000E94B006D8015F968C935F975D968C9167
:101E30005D978F5F5D968C93C8010E94E506F8015F
:101E400094A383A30E94C203D80195966D937D93BA
:101E50008D939C939897C8010E94E506F80123A1F1
:101E600034A12817390748F40E94C203D801959677
:101E70006D937D938D939C9398970E94C203F80174
:101E800025A136A147A150A53B014C01621A730A56
:101E9000840A950A83899489A0E0B0E086159705A5
:101EA000A805B90510F4118E1DC0C8010E94E506F1
:101EB000D80194969C938E9393975F96CC90D12C57
:101EC00096012F5F3F4F8217930708F47FC00E944F
:101ED000D8089601220F331F821B930B8139914042
:101EE00018F4F801158E72C084E090E00E94C412CC
:101EF0007C01DC01CD92DC92C6010E94C4124C012F
:101F0000F70193838283D80192961C921E92919737
:101F1000F801C1A0D2A0878D90E0C816D90670F450
:101F2000C80CD91CC8010E94B006D6018C93F801D8
:101F300081A192A1019692A381A3EACF858D8F5FA3
:101F4000858FC8010E94B006F80180A38E3F81F5FD
:101F50000084F185E02D309759F0828193810E94B1
:101F60005C13D80118968D919C9119970E945C136F
:101F700084E090E00E94C412F70120813181DC01ED
:101F80002D933C93F80191878087D70112962D916C
:101F90003C911397FC0133832283C7010E945C1399
:101FA000D8015996AC925997E5E05D96EC930EC036
:101FB000158E118EF701828193810E945C13C701F7
:101FC0000E945C1303C0D8015D961C92F801858DB8
:101FD000853008F4BFC18F3008F0B7C1873009F4ED
:101FE00092C0D80159968C915997882309F4A8C1B9
:101FF00018960D90BC91A02D1296ED91FC9113971F
:102000008D919C911197E80FF91F31978081F8010C
:1020100081A72D913C911197A90141505109119629
:102020005C934E9381A566857785982F96959695B6
:102030009695FB0160817181FB01E90FF11D6081C3
:1020400070E0982F977002C0759567959A95E2F7A2
:1020500060FF5FC1843639F0823709F44FC08334A2
:1020600009F035C155C04230510509F052C11296F0
:10207000ED91FC9113978081853009F04AC16FEF93
:10208000C8010E946E0567E0C8010E946E0562E506
:10209000C8010E946E05D8011896ED91FC91199720
:1020A0000280F381E02D6181C8010E946E05D80194
:1020B0001C96ED91FC911D9780809180C280D38009
:1020C0005C961C921E925B97F801838D948D881507
:1020D000990590F4F601E80FF91F6081C8010E948C
:1020E0006E05D8015B968D919C915C9701965C96EC
:1020F0009C938E935B97E8CF64E697C0A0E46A2E2A
:10210000F801658E27C1E5E0D8015D96EC9301C129
:102110004115510509F4FDC012960D90BC91A02DFA
:102120008C9141305105C1F58D3409F486C0843657
:1021300009F0EFC06FEFC8010E946E0566E0C801AC
:102140000E946E0562E5C8010E946E05D8011C96CA
:10215000ED91FC911D9780809180C280D3805C9628
:102160001C921E925B97F801838D948D88159905BA
:1021700008F059C0F601E80FF91F6081C8010E94FC
:102180006E05D8015B968D919C915C9701965C964B
:102190009C938E935B97E7CF813409F0BAC02A0FE6
:1021A0003B1FF90133978081853409F0B2C0453077
:1021B000510508F4AEC011968C91823509F0A9C082
:1021C0006FEFC8010E946E05D8011896ED91FC9141
:1021D00019976081660F6550C8010E946E0562E51F
:1021E000C8010E946E05F801A085B1851296ED9197
:1021F000FC9113978D919C91E80FF91F31976081A5
:10220000C8010E946E05D8011896ED91FC911997AE
:1022100080809180B2E08B1A9108F2E06F2E712CD1
:102220006814790428F1F80161A5C8010E946E05BF
:102230006EEFC8010E946E056CC06FEFC8010E946E
:102240006E0564E0C8010E946E0562E5C8010E9447
:102250006E050E94D808D82E692FC8010E946E050D
:102260006D2DC8010E946E05D80199966C91DDCF45
:10227000D8011896ED91FC9119970280F381E02D19
:10228000E60DF71D90818EE0890F8E3008F0892FC2
:102290008770806480937C0080917A008064809352
:1022A0007A0080917A0086FDFCCFC0907800809102
:1022B0007900D12CD82A6D2DC8010E946E056C2D95
:1022C000C8010E946E05BFEF6B1A7B0AA9CFF80107
:1022D000C2A4D3A4F601958120E030E02917C8F408
:1022E000B9012F5F3F4FF60142815381460F571FBF
:1022F000FA0140818413F2CF660F771FF6018081C7
:102300009181FC01E60FF71F0190F081E02DCD01D6
:102310000995D8011896ED91FC911997309771F0B5
:10232000828193810E945C13F801808591850E94CF
:102330005C13D80119961C921E921897F801118E01
:10234000EFE0D8015D96EC9305C08F3019F4D80109
:102350005D961C92AD85BE85ED91FC910280F38166
:10236000E02DE40DF51D0190F081E02D858D803488
:1023700011F4B7E0B58FB394C9CC61E070E080E0B0
:1023800090E00E948803E1E02E1A310809F0B7CCF2
:102390000E94040B29833A834B835C836D837E8385
:1023A0008F839887809163018823E9F080915E0193
:1023B00068E0662E712C671A710801C0880F6A9454
:1023C000EAF787FF10C040935F01442361F0309328
:1023D0006001332341F020936101222321F080E04A
:1023E00090E00E94650B0E94040B29833A834B8383
:1023F0005C836D837E838F839887809162018823BD
:10240000E9F080915A0158E0852E912C871A9108A5
:1024100001C0880F8A94EAF787FF10C040935B01E0
:10242000442361F030935C01332341F020935D013C
:10243000222321F082E390E00E94650B0E94C900F4
:102440005ACC0F931F93CF93DF9310928C0110926D
:102450008B0188EE93E0A0E0B0E080938D01909333
:102460008E01A0938F01B093900188E191E0909349
:102470008A018093890185EC90E090939601809386
:10248000950184EC90E0909398018093970180EC03
:1024900090E090939A018093990181EC90E0909361
:1024A0009C0180939B0182EC90E090939E0180932D
:1024B0009D0186EC90E09093A00180939F01109283
:1024C000A2011092A3011092A4011092A50182E032
:1024D00090E00E94C4128C0184E090E00E94C4123B
:1024E000EC0118828CE0898388E190E00E94C4129C
:1024F0009B838A83F801D183C083109331020093B8
:10250000300280E092ECA1E0B0E080932C02909346
:102510002D02A0932E02B0932F0260E072EC81E0B6
:1025200090E00E94D60985E08093290286E080939E
:102530002A0287E080932B0261E085E00E944C0331
:1025400061E087E00E944C03809188018C30A0F408
:1025500091E0980F909388018093260290E0FC010F
:10256000EE0FFF1F8E0F9F1FFC01EC59FE4F88EBF3
:102570009BE09283818303C08FEF80932602DF91DB
:10258000CF911F910F9108950F931F93CF93DF93D6
:102590008230910510F482E090E0E0913402F091F5
:1025A000350220E030E0A0E0B0E0309719F1408142
:1025B00051810281138148175907C8F08417950784
:1025C00069F4109731F012960C93129713961C939E
:1025D00027C0009334021093350222C02115310523
:1025E00019F04217530718F49A01BD01EF01DF01FA
:1025F000F801DBCF21153105F9F0281B390B243008
:10260000310580F48A819B816115710521F0FB0100
:102610009383828304C09093350280933402FE0139
:10262000329644C0FE01E20FF31F81939193225032
:102630003109398328833AC0209132023091330224
:10264000232B41F420910201309103013093330296
:1026500020933202209100013091010121153105B2
:1026600041F42DB73EB74091040150910501241B60
:10267000350BE0913202F0913302E217F307A0F438
:102680002E1B3F0B2817390778F0AC014E5F5F4FC8
:102690002417350748F04E0F5F1F509333024093C5
:1026A00032028193919302C0E0E0F0E0CF01DF912C
:1026B000CF911F910F910895CF93DF93009709F465
:1026C00081C0FC01329713821282A0913402B09132
:1026D0003502109781F420813181820F931F209160
:1026E0003202309133022817390751F5F093330243
:1026F000E093320267C0ED0120E030E0CE17DF0743
:1027000040F44A815B819E0141155105F1F0EA01D7
:10271000F5CFD383C28340815181840F951FC817A1
:10272000D90759F488819981840F951F0296918366
:1027300080838A819B81938382832115310529F4CB
:10274000F0933502E09334023DC0E901FB83EA8354
:1027500049915991C40FD51FEC17FD0761F4808191
:102760009181840F951F0296E90199838883828164
:1027700093819B838A83E0E0F0E012968D919C9197
:102780001397009719F0FD01DC01F7CF8D919C9113
:1027900011979D012E5F3F4F820F931F20913202B0
:1027A000309133022817390769F4309729F41092D1
:1027B00035021092340202C013821282B0933302A7
:1027C000A0933202DF91CF910895E89409C097FB5E
:1027D0003EF490958095709561957F4F8F4F9F4FF8
:1027E0009923A9F0F92F96E9BB279395F69587953C
:1027F00077956795B795F111F8CFFAF4BB0F11F4FF
:1028000060FF1BC06F5F7F4F8F4F9F4F16C08823A5
:1028100011F096E911C0772321F09EE8872F762FDB
:1028200005C0662371F096E8862F70E060E02AF01C
:102830009A95660F771F881FDAF7880F9695879508
:1028400097F90895990F0008550FAA0BE0E8FEEFDD
:1028500016161706E807F907C0F012161306E40764
:10286000F50798F0621B730B840B950B39F40A265D
:1028700061F0232B242B252B21F408950A2609F43B
:10288000A140A6958FEF811D811D08950E945914C6
:102890000C94CA140E94BC1438F00E94C31420F097
:1028A000952311F00C94B3140C94B91411240C94C6
:1028B000FE140E94DB1470F3959FC1F3950F50E056
:1028C000551F629FF001729FBB27F00DB11D639FE2
:1028D000AA27F00DB11DAA1F649F6627B00DA11D88
:1028E000661F829F2227B00DA11D621F739FB00D2E
:1028F000A11D621F839FA00D611D221F749F33279E
:10290000A00D611D231F849F600D211D822F762F36
:102910006A2F11249F5750409AF0F1F088234AF013
:10292000EE0FFF1FBB1F661F771F881F915050407F
:10293000A9F79E3F510580F00C94B3140C94FE143B
:102940005F3FE4F3983ED4F3869577956795B79506
:10295000F795E7959F5FC1F7FE2B880F911D969520
:10296000879597F9089597F99F6780E870E060E090
:1029700008959FEF80EC089500240A941616170618
:1029800018060906089500240A9412161306140660
:1029900005060895092E0394000C11F4882352F0C3
:1029A000BB0F40F4BF2B11F460FF04C06F5F7F4F7B
:1029B0008F4F9F4F089557FD9058440F551F59F062
:1029C0005F3F71F04795880F97FB991F61F09F3F1C
:1029D00079F087950895121613061406551FF2CF45
:1029E0004695F1DF08C0161617061806991FF1CF95
:1029F00086957105610508940895E894BB276627BC
:102A00007727CB0197F90895F999FECF92BD81BD43
:102A1000F89A992780B50895262FF999FECF1FBA05
:102A200092BD81BD20BD0FB6F894FA9AF99A0FBEF7
:102A300001960895052E97FB1EF400940E9431150F
:102A400057FD07D00E944C1507FC03D04EF40C94A0
:102A5000311550954095309521953F4F4F4F5F4F21
:102A6000089590958095709561957F4F8F4F9F4FFA
:102A700008950E946E15A59F900DB49F900DA49F80
:102A8000800D911D11240895B7FF0C9439150E94F3
:102A90003915821B930B0895A1E21A2EAA1BBB1BAA
:102AA000FD010DC0AA1FBB1FEE1FFF1FA217B3071A
:102AB000E407F50720F0A21BB30BE40BF50B661F30
:102AC000771F881F991F1A9469F7609570958095F4
:102AD00090959B01AC01BD01CF010895A29FB0016B
:102AE000B39FC001A39F700D811D1124911DB29F42
:102AF000700D811D1124911D08950E94221408F467
:102B00008FEF0895991B79E004C0991F961708F07C
:102B1000961B881F7A95C9F780950895EE0FFF1FC1
:102B20000590F491E02D099481E090E0F8940C94E4
:062B30009915F894FFCF97
:102B3600000036028000416C436C4D6F5068000007
:102B4600050000320000000007026C098C00D2026A
:102B5600BD009B00AF0072656164790041542B4350
:102B660049504D4F44453D310041542B4349504D4A
:0C2B76004F44453D310D0A0D0A4F4B0045
:00000001FF
